:100000000C9434000C943E000C943E000C943E0082
:100010000C943E000C943E000C943E000C943E0068
:100020000C943E000C943E000C943E000C943E0058
:100030000C943E000C943E000C943E000C943E0048
:100040000C943E000C943E000C943E000C943E0038
:100050000C943E000C943E000C943E000C943E0028
:100060000C943E000C943E0011241FBECFEFD8E04C
:10007000DEBFCDBF0E948B000C94AF000C9400003B
:10008000CF93DF9300D0CDB7DEB79A838983898180
:100090009A81292F332785EC90E0FC01208384ECA2
:1000A00090E02981FC01208381EC90E028E1FC01B3
:1000B000208382EC90E026E0FC01208300000F907A
:1000C0000F90DF91CF910895CF93DF93CDB7DEB737
:1000D000000080EC90E0FC0180818823D4F786EC5E
:1000E00090E0FC018081DF91CF910895CF93DF9361
:1000F000CDB7DEB784E290E0FC01208184E290E09D
:100100002160FC01208387E690E00E94400000000F
:10011000DF91CF910895CF93DF930F92CDB7DEB7E4
:100120000E9476000E94640089838981813351F4A2
:1001300085E290E0FC01208185E290E02160FC01F5
:100140002083F0CF8981803369F785E290E0FC015C
:10015000208185E290E02E7FFC012083E3CFF8949C
:02016000FFCFCF
:00000001FF
